{
  "abi": [
    {
      "type": "function",
      "name": "UPGRADE_INTERFACE_VERSION",
      "inputs": [],
      "outputs": [
        {
          "name": "",
          "type": "string",
          "internalType": "string"
        }
      ],
      "stateMutability": "view"
    },
    {
      "type": "function",
      "name": "createProject",
      "inputs": [
        {
          "name": "_goal",
          "type": "uint256",
          "internalType": "uint256"
        },
        {
          "name": "_milestones",
          "type": "uint256",
          "internalType": "uint256"
        }
      ],
      "outputs": [],
      "stateMutability": "nonpayable"
    },
    {
      "type": "function",
      "name": "fundProject",
      "inputs": [
        {
          "name": "_projectOwner",
          "type": "address",
          "internalType": "address"
        },
        {
          "name": "_projectIndex",
          "type": "uint256",
          "internalType": "uint256"
        }
      ],
      "outputs": [],
      "stateMutability": "payable"
    },
    {
      "type": "function",
      "name": "initialize",
      "inputs": [],
      "outputs": [],
      "stateMutability": "nonpayable"
    },
    {
      "type": "function",
      "name": "investmentCount",
      "inputs": [
        {
          "name": "",
          "type": "address",
          "internalType": "address"
        }
      ],
      "outputs": [
        {
          "name": "",
          "type": "uint256",
          "internalType": "uint256"
        }
      ],
      "stateMutability": "view"
    },
    {
      "type": "function",
      "name": "investments",
      "inputs": [
        {
          "name": "",
          "type": "address",
          "internalType": "address"
        },
        {
          "name": "",
          "type": "uint256",
          "internalType": "uint256"
        }
      ],
      "outputs": [
        {
          "name": "projectOwner",
          "type": "address",
          "internalType": "address"
        },
        {
          "name": "projectIndex",
          "type": "uint256",
          "internalType": "uint256"
        },
        {
          "name": "amount",
          "type": "uint256",
          "internalType": "uint256"
        }
      ],
      "stateMutability": "view"
    },
    {
      "type": "function",
      "name": "owner",
      "inputs": [],
      "outputs": [
        {
          "name": "",
          "type": "address",
          "internalType": "address"
        }
      ],
      "stateMutability": "view"
    },
    {
      "type": "function",
      "name": "projectCount",
      "inputs": [
        {
          "name": "",
          "type": "address",
          "internalType": "address"
        }
      ],
      "outputs": [
        {
          "name": "",
          "type": "uint256",
          "internalType": "uint256"
        }
      ],
      "stateMutability": "view"
    },
    {
      "type": "function",
      "name": "projects",
      "inputs": [
        {
          "name": "",
          "type": "address",
          "internalType": "address"
        },
        {
          "name": "",
          "type": "uint256",
          "internalType": "uint256"
        }
      ],
      "outputs": [
        {
          "name": "owner",
          "type": "address",
          "internalType": "address"
        },
        {
          "name": "index",
          "type": "uint256",
          "internalType": "uint256"
        },
        {
          "name": "goal",
          "type": "uint256",
          "internalType": "uint256"
        },
        {
          "name": "milestones",
          "type": "uint256",
          "internalType": "uint256"
        },
        {
          "name": "funded",
          "type": "uint256",
          "internalType": "uint256"
        },
        {
          "name": "released",
          "type": "uint256",
          "internalType": "uint256"
        }
      ],
      "stateMutability": "view"
    },
    {
      "type": "function",
      "name": "proxiableUUID",
      "inputs": [],
      "outputs": [
        {
          "name": "",
          "type": "bytes32",
          "internalType": "bytes32"
        }
      ],
      "stateMutability": "view"
    },
    {
      "type": "function",
      "name": "releaseFunds",
      "inputs": [
        {
          "name": "_projectIndex",
          "type": "uint256",
          "internalType": "uint256"
        },
        {
          "name": "_amount",
          "type": "uint256",
          "internalType": "uint256"
        },
        {
          "name": "to",
          "type": "address",
          "internalType": "address"
        }
      ],
      "outputs": [],
      "stateMutability": "payable"
    },
    {
      "type": "function",
      "name": "renounceOwnership",
      "inputs": [],
      "outputs": [],
      "stateMutability": "nonpayable"
    },
    {
      "type": "function",
      "name": "transferOwnership",
      "inputs": [
        {
          "name": "newOwner",
          "type": "address",
          "internalType": "address"
        }
      ],
      "outputs": [],
      "stateMutability": "nonpayable"
    },
    {
      "type": "function",
      "name": "upgradeToAndCall",
      "inputs": [
        {
          "name": "newImplementation",
          "type": "address",
          "internalType": "address"
        },
        {
          "name": "data",
          "type": "bytes",
          "internalType": "bytes"
        }
      ],
      "outputs": [],
      "stateMutability": "payable"
    },
    {
      "type": "event",
      "name": "Initialized",
      "inputs": [
        {
          "name": "version",
          "type": "uint64",
          "indexed": false,
          "internalType": "uint64"
        }
      ],
      "anonymous": false
    },
    {
      "type": "event",
      "name": "OwnershipTransferred",
      "inputs": [
        {
          "name": "previousOwner",
          "type": "address",
          "indexed": true,
          "internalType": "address"
        },
        {
          "name": "newOwner",
          "type": "address",
          "indexed": true,
          "internalType": "address"
        }
      ],
      "anonymous": false
    },
    {
      "type": "event",
      "name": "ProjectCreated",
      "inputs": [
        {
          "name": "owner",
          "type": "address",
          "indexed": false,
          "internalType": "address"
        },
        {
          "name": "index",
          "type": "uint256",
          "indexed": false,
          "internalType": "uint256"
        },
        {
          "name": "goal",
          "type": "uint256",
          "indexed": false,
          "internalType": "uint256"
        },
        {
          "name": "milestones",
          "type": "uint256",
          "indexed": false,
          "internalType": "uint256"
        },
        {
          "name": "timestamp",
          "type": "uint256",
          "indexed": false,
          "internalType": "uint256"
        }
      ],
      "anonymous": false
    },
    {
      "type": "event",
      "name": "ProjectFunded",
      "inputs": [
        {
          "name": "funder",
          "type": "address",
          "indexed": false,
          "internalType": "address"
        },
        {
          "name": "investmentIndex",
          "type": "uint256",
          "indexed": false,
          "internalType": "uint256"
        },
        {
          "name": "amount",
          "type": "uint256",
          "indexed": false,
          "internalType": "uint256"
        },
        {
          "name": "projectOwner",
          "type": "address",
          "indexed": false,
          "internalType": "address"
        },
        {
          "name": "projectIndex",
          "type": "uint256",
          "indexed": false,
          "internalType": "uint256"
        },
        {
          "name": "timestamp",
          "type": "uint256",
          "indexed": false,
          "internalType": "uint256"
        }
      ],
      "anonymous": false
    },
    {
      "type": "event",
      "name": "ProjectFundsReleased",
      "inputs": [
        {
          "name": "owner",
          "type": "address",
          "indexed": false,
          "internalType": "address"
        },
        {
          "name": "index",
          "type": "uint256",
          "indexed": false,
          "internalType": "uint256"
        },
        {
          "name": "amount",
          "type": "uint256",
          "indexed": false,
          "internalType": "uint256"
        },
        {
          "name": "to",
          "type": "address",
          "indexed": false,
          "internalType": "address"
        },
        {
          "name": "timestamp",
          "type": "uint256",
          "indexed": false,
          "internalType": "uint256"
        }
      ],
      "anonymous": false
    },
    {
      "type": "event",
      "name": "Upgraded",
      "inputs": [
        {
          "name": "implementation",
          "type": "address",
          "indexed": true,
          "internalType": "address"
        }
      ],
      "anonymous": false
    },
    {
      "type": "error",
      "name": "AddressEmptyCode",
      "inputs": [
        {
          "name": "target",
          "type": "address",
          "internalType": "address"
        }
      ]
    },
    {
      "type": "error",
      "name": "AmountExceedsProjectFund",
      "inputs": []
    },
    {
      "type": "error",
      "name": "AmountExceedsProjectGoal",
      "inputs": []
    },
    {
      "type": "error",
      "name": "ERC1967InvalidImplementation",
      "inputs": [
        {
          "name": "implementation",
          "type": "address",
          "internalType": "address"
        }
      ]
    },
    {
      "type": "error",
      "name": "ERC1967NonPayable",
      "inputs": []
    },
    {
      "type": "error",
      "name": "EthereumTransferFailed",
      "inputs": []
    },
    {
      "type": "error",
      "name": "FailedCall",
      "inputs": []
    },
    {
      "type": "error",
      "name": "InvalidAddressInput",
      "inputs": []
    },
    {
      "type": "error",
      "name": "InvalidAmountInput",
      "inputs": []
    },
    {
      "type": "error",
      "name": "InvalidFundingAmount",
      "inputs": []
    },
    {
      "type": "error",
      "name": "InvalidGoalInput",
      "inputs": []
    },
    {
      "type": "error",
      "name": "InvalidIndexInput",
      "inputs": []
    },
    {
      "type": "error",
      "name": "InvalidInitialization",
      "inputs": []
    },
    {
      "type": "error",
      "name": "InvalidMilestonesInput",
      "inputs": []
    },
    {
      "type": "error",
      "name": "NotInitializing",
      "inputs": []
    },
    {
      "type": "error",
      "name": "OwnableInvalidOwner",
      "inputs": [
        {
          "name": "owner",
          "type": "address",
          "internalType": "address"
        }
      ]
    },
    {
      "type": "error",
      "name": "OwnableUnauthorizedAccount",
      "inputs": [
        {
          "name": "account",
          "type": "address",
          "internalType": "address"
        }
      ]
    },
    {
      "type": "error",
      "name": "ProjectEnded",
      "inputs": []
    },
    {
      "type": "error",
      "name": "UUPSUnauthorizedCallContext",
      "inputs": []
    },
    {
      "type": "error",
      "name": "UUPSUnsupportedProxiableUUID",
      "inputs": [
        {
          "name": "slot",
          "type": "bytes32",
          "internalType": "bytes32"
        }
      ]
    }
  ],
  "bytecode": {
    "object": "0x60a06040523073ffffffffffffffffffffffffffffffffffffffff1660809073ffffffffffffffffffffffffffffffffffffffff168152503480156041575f5ffd5b50608051611fc16100685f395f8181610f2301528181610f7801526111320152611fc15ff3fe6080604052600436106100dc575f3560e01c8063715018a61161007e5780638da5cb5b116100585780638da5cb5b1461028d578063ad3cb1cc146102b7578063f16fd392146102e1578063f2fde38b146102fd576100dc565b8063715018a6146102205780637ecdd3c5146102365780638129fc1c14610277576100dc565b80634f1ef286116100ba5780634f1ef2861461016257806352d1902d1461017e5780636608f47c146101a85780636e4e2df7146101e4576100dc565b806302da667b146100e05780633e6d9770146101085780634491629b14610146575b5f5ffd5b3480156100eb575f5ffd5b50610106600480360381019061010191906117e0565b610325565b005b348015610113575f5ffd5b5061012e60048036038101906101299190611878565b6104f8565b60405161013d939291906118d4565b60405180910390f35b610160600480360381019061015b9190611878565b610548565b005b61017c60048036038101906101779190611a45565b6108ad565b005b348015610189575f5ffd5b506101926108cc565b60405161019f9190611ab7565b60405180910390f35b3480156101b3575f5ffd5b506101ce60048036038101906101c99190611ad0565b6108fd565b6040516101db9190611afb565b60405180910390f35b3480156101ef575f5ffd5b5061020a60048036038101906102059190611ad0565b610912565b6040516102179190611afb565b60405180910390f35b34801561022b575f5ffd5b50610234610927565b005b348015610241575f5ffd5b5061025c60048036038101906102579190611878565b61093a565b60405161026e96959493929190611b14565b60405180910390f35b348015610282575f5ffd5b5061028b61099b565b005b348015610298575f5ffd5b506102a1610b23565b6040516102ae9190611b73565b60405180910390f35b3480156102c2575f5ffd5b506102cb610b58565b6040516102d89190611bec565b60405180910390f35b6102fb60048036038101906102f69190611c0c565b610b91565b005b348015610308575f5ffd5b50610323600480360381019061031e9190611ad0565b610e9d565b005b5f820361035e576040517fdf58725600000000000000000000000000000000000000000000000000000000815260040160405180910390fd5b5f81148061036c5750600581115b156103a3576040517f2e54973a00000000000000000000000000000000000000000000000000000000815260040160405180910390fd5b5f60015f3373ffffffffffffffffffffffffffffffffffffffff1673ffffffffffffffffffffffffffffffffffffffff1681526020019081526020015f205f8154809291906103f190611c89565b9190505590505f5f5f3373ffffffffffffffffffffffffffffffffffffffff1673ffffffffffffffffffffffffffffffffffffffff1681526020019081526020015f205f8381526020019081526020015f20905033815f015f6101000a81548173ffffffffffffffffffffffffffffffffffffffff021916908373ffffffffffffffffffffffffffffffffffffffff1602179055508181600101819055508381600201819055508281600301819055505f81600401819055505f81600501819055507f18bb2539629584aae5f6a7a5944b5a92a9161f09110eada6dc02e5de825a7f2f33838686426040516104ea959493929190611cd0565b60405180910390a150505050565b6002602052815f5260405f20602052805f5260405f205f9150915050805f015f9054906101000a900473ffffffffffffffffffffffffffffffffffffffff16908060010154908060020154905083565b5f73ffffffffffffffffffffffffffffffffffffffff168273ffffffffffffffffffffffffffffffffffffffff16036105ad576040517f4866b43f00000000000000000000000000000000000000000000000000000000815260040160405180910390fd5b6001816105ba9190611d21565b60015f8473ffffffffffffffffffffffffffffffffffffffff1673ffffffffffffffffffffffffffffffffffffffff1681526020019081526020015f20541015610630576040517f0c411ba700000000000000000000000000000000000000000000000000000000815260040160405180910390fd5b5f3403610669576040517fbb21bfd400000000000000000000000000000000000000000000000000000000815260040160405180910390fd5b5f5f5f8473ffffffffffffffffffffffffffffffffffffffff1673ffffffffffffffffffffffffffffffffffffffff1681526020019081526020015f205f8381526020019081526020015f2090505f816004015482600201546106cc9190611d54565b03610703576040517fb946329700000000000000000000000000000000000000000000000000000000815260040160405180910390fd5b5f3482600401546107149190611d21565b90508160020154811115610754576040517fa589377400000000000000000000000000000000000000000000000000000000815260040160405180910390fd5b5f60035f3373ffffffffffffffffffffffffffffffffffffffff1673ffffffffffffffffffffffffffffffffffffffff1681526020019081526020015f205f8154809291906107a290611c89565b9190505590505f60025f3373ffffffffffffffffffffffffffffffffffffffff1673ffffffffffffffffffffffffffffffffffffffff1681526020019081526020015f205f8381526020019081526020015f20905085815f015f6101000a81548173ffffffffffffffffffffffffffffffffffffffff021916908373ffffffffffffffffffffffffffffffffffffffff16021790555084816001018190555034816002015f8282546108549190611d21565b925050819055508284600401819055507f6018ad64562efd93d22d748684bd9aab8870d294413f37b6bfdca1b8cab1fd0633833489894260405161089d96959493929190611d87565b60405180910390a1505050505050565b6108b5610f21565b6108be82611007565b6108c88282611012565b5050565b5f6108d5611130565b7f360894a13ba1a3210667c828492db98dca3e2076cc3735a920a3ca505d382bbc5f1b905090565b6001602052805f5260405f205f915090505481565b6003602052805f5260405f205f915090505481565b61092f6111b7565b6109385f61123e565b565b5f602052815f5260405f20602052805f5260405f205f9150915050805f015f9054906101000a900473ffffffffffffffffffffffffffffffffffffffff16908060010154908060020154908060030154908060040154908060050154905086565b5f6109a461130f565b90505f815f0160089054906101000a900460ff161590505f825f015f9054906101000a900467ffffffffffffffff1690505f5f8267ffffffffffffffff161480156109ec5750825b90505f60018367ffffffffffffffff16148015610a1f57505f3073ffffffffffffffffffffffffffffffffffffffff163b145b905081158015610a2d575080155b15610a64576040517ff92ee8a900000000000000000000000000000000000000000000000000000000815260040160405180910390fd5b6001855f015f6101000a81548167ffffffffffffffff021916908367ffffffffffffffff1602179055508315610ab1576001855f0160086101000a81548160ff0219169083151502179055505b610aba33611322565b610ac2611336565b8315610b1c575f855f0160086101000a81548160ff0219169083151502179055507fc7f505b2f371ae2175ee4913f4499e1f2633a7b5936321eed1cdaeb6115181d26001604051610b139190611e3b565b60405180910390a15b5050505050565b5f5f610b2d611340565b9050805f015f9054906101000a900473ffffffffffffffffffffffffffffffffffffffff1691505090565b6040518060400160405280600581526020017f352e302e3000000000000000000000000000000000000000000000000000000081525081565b5f8203610bca576040517fd7cece4200000000000000000000000000000000000000000000000000000000815260040160405180910390fd5b5f73ffffffffffffffffffffffffffffffffffffffff168173ffffffffffffffffffffffffffffffffffffffff1603610c2f576040517f4866b43f00000000000000000000000000000000000000000000000000000000815260040160405180910390fd5b600183610c3c9190611d21565b60015f3373ffffffffffffffffffffffffffffffffffffffff1673ffffffffffffffffffffffffffffffffffffffff1681526020019081526020015f20541015610cb2576040517f0c411ba700000000000000000000000000000000000000000000000000000000815260040160405180910390fd5b5f5f5f3373ffffffffffffffffffffffffffffffffffffffff1673ffffffffffffffffffffffffffffffffffffffff1681526020019081526020015f205f8581526020019081526020015f2090505f81600401548260020154610d159190611d54565b03610d4c576040517fb946329700000000000000000000000000000000000000000000000000000000815260040160405180910390fd5b5f81600501548260040154610d619190611d54565b905083811015610d9d576040517f7224d81200000000000000000000000000000000000000000000000000000000815260040160405180910390fd5b83826005015f828254610db09190611d21565b925050819055505f8373ffffffffffffffffffffffffffffffffffffffff1685604051610ddc90611e81565b5f6040518083038185875af1925050503d805f8114610e16576040519150601f19603f3d011682016040523d82523d5f602084013e610e1b565b606091505b5050905080610e56576040517f53a7326b00000000000000000000000000000000000000000000000000000000815260040160405180910390fd5b7f93473097f87d5e9d6b0720d7957a4c6e359bc4ad6e327261efd60d3801d8b6b13387878742604051610e8d959493929190611e95565b60405180910390a1505050505050565b610ea56111b7565b5f73ffffffffffffffffffffffffffffffffffffffff168173ffffffffffffffffffffffffffffffffffffffff1603610f15575f6040517f1e4fbdf7000000000000000000000000000000000000000000000000000000008152600401610f0c9190611b73565b60405180910390fd5b610f1e8161123e565b50565b7f000000000000000000000000000000000000000000000000000000000000000073ffffffffffffffffffffffffffffffffffffffff163073ffffffffffffffffffffffffffffffffffffffff161480610fce57507f000000000000000000000000000000000000000000000000000000000000000073ffffffffffffffffffffffffffffffffffffffff16610fb5611367565b73ffffffffffffffffffffffffffffffffffffffff1614155b15611005576040517fe07c8dba00000000000000000000000000000000000000000000000000000000815260040160405180910390fd5b565b61100f6111b7565b50565b8173ffffffffffffffffffffffffffffffffffffffff166352d1902d6040518163ffffffff1660e01b8152600401602060405180830381865afa92505050801561107a57506040513d601f19601f820116820180604052508101906110779190611f10565b60015b6110bb57816040517f4c9c8ce30000000000000000000000000000000000000000000000000000000081526004016110b29190611b73565b60405180910390fd5b7f360894a13ba1a3210667c828492db98dca3e2076cc3735a920a3ca505d382bbc5f1b811461112157806040517faa1d49a40000000000000000000000000000000000000000000000000000000081526004016111189190611ab7565b60405180910390fd5b61112b83836113ba565b505050565b7f000000000000000000000000000000000000000000000000000000000000000073ffffffffffffffffffffffffffffffffffffffff163073ffffffffffffffffffffffffffffffffffffffff16146111b5576040517fe07c8dba00000000000000000000000000000000000000000000000000000000815260040160405180910390fd5b565b6111bf61142c565b73ffffffffffffffffffffffffffffffffffffffff166111dd610b23565b73ffffffffffffffffffffffffffffffffffffffff161461123c5761120061142c565b6040517f118cdaa70000000000000000000000000000000000000000000000000000000081526004016112339190611b73565b60405180910390fd5b565b5f611247611340565b90505f815f015f9054906101000a900473ffffffffffffffffffffffffffffffffffffffff16905082825f015f6101000a81548173ffffffffffffffffffffffffffffffffffffffff021916908373ffffffffffffffffffffffffffffffffffffffff1602179055508273ffffffffffffffffffffffffffffffffffffffff168173ffffffffffffffffffffffffffffffffffffffff167f8be0079c531659141344cd1fd0a4f28419497f9722a3daafe3b4186f6b6457e060405160405180910390a3505050565b5f5f611319611433565b90508091505090565b61132a61145c565b6113338161149c565b50565b61133e61145c565b565b5f7f9016d09d72d40fdae2fd8ceac6b6234c7706214fd39c1cd1e609a0528c199300905090565b5f6113937f360894a13ba1a3210667c828492db98dca3e2076cc3735a920a3ca505d382bbc5f1b611520565b5f015f9054906101000a900473ffffffffffffffffffffffffffffffffffffffff16905090565b6113c382611529565b8173ffffffffffffffffffffffffffffffffffffffff167fbc7cd75a20ee27fd9adebab32041f755214dbc6bffa90cc0225b39da2e5c2d3b60405160405180910390a25f8151111561141f5761141982826115f2565b50611428565b611427611672565b5b5050565b5f33905090565b5f7ff0c57e16840df040f15088dc2f81fe391c3923bec73e23a9662efc9c229c6a005f1b905090565b6114646116ae565b61149a576040517fd7e6bcf800000000000000000000000000000000000000000000000000000000815260040160405180910390fd5b565b6114a461145c565b5f73ffffffffffffffffffffffffffffffffffffffff168173ffffffffffffffffffffffffffffffffffffffff1603611514575f6040517f1e4fbdf700000000000000000000000000000000000000000000000000000000815260040161150b9190611b73565b60405180910390fd5b61151d8161123e565b50565b5f819050919050565b5f8173ffffffffffffffffffffffffffffffffffffffff163b0361158457806040517f4c9c8ce300000000000000000000000000000000000000000000000000000000815260040161157b9190611b73565b60405180910390fd5b806115b07f360894a13ba1a3210667c828492db98dca3e2076cc3735a920a3ca505d382bbc5f1b611520565b5f015f6101000a81548173ffffffffffffffffffffffffffffffffffffffff021916908373ffffffffffffffffffffffffffffffffffffffff16021790555050565b60605f5f8473ffffffffffffffffffffffffffffffffffffffff168460405161161b9190611f75565b5f60405180830381855af49150503d805f8114611653576040519150601f19603f3d011682016040523d82523d5f602084013e611658565b606091505b50915091506116688583836116cc565b9250505092915050565b5f3411156116ac576040517fb398979f00000000000000000000000000000000000000000000000000000000815260040160405180910390fd5b565b5f6116b761130f565b5f0160089054906101000a900460ff16905090565b6060826116e1576116dc82611759565b611751565b5f825114801561170757505f8473ffffffffffffffffffffffffffffffffffffffff163b145b1561174957836040517f9996b3150000000000000000000000000000000000000000000000000000000081526004016117409190611b73565b60405180910390fd5b819050611752565b5b9392505050565b5f8151111561176a57805160208201fd5b6040517fd6bda27500000000000000000000000000000000000000000000000000000000815260040160405180910390fd5b5f604051905090565b5f5ffd5b5f5ffd5b5f819050919050565b6117bf816117ad565b81146117c9575f5ffd5b50565b5f813590506117da816117b6565b92915050565b5f5f604083850312156117f6576117f56117a5565b5b5f611803858286016117cc565b9250506020611814858286016117cc565b9150509250929050565b5f73ffffffffffffffffffffffffffffffffffffffff82169050919050565b5f6118478261181e565b9050919050565b6118578161183d565b8114611861575f5ffd5b50565b5f813590506118728161184e565b92915050565b5f5f6040838503121561188e5761188d6117a5565b5b5f61189b85828601611864565b92505060206118ac858286016117cc565b9150509250929050565b6118bf8161183d565b82525050565b6118ce816117ad565b82525050565b5f6060820190506118e75f8301866118b6565b6118f460208301856118c5565b61190160408301846118c5565b949350505050565b5f5ffd5b5f5ffd5b5f601f19601f8301169050919050565b7f4e487b71000000000000000000000000000000000000000000000000000000005f52604160045260245ffd5b61195782611911565b810181811067ffffffffffffffff8211171561197657611975611921565b5b80604052505050565b5f61198861179c565b9050611994828261194e565b919050565b5f67ffffffffffffffff8211156119b3576119b2611921565b5b6119bc82611911565b9050602081019050919050565b828183375f83830152505050565b5f6119e96119e484611999565b61197f565b905082815260208101848484011115611a0557611a0461190d565b5b611a108482856119c9565b509392505050565b5f82601f830112611a2c57611a2b611909565b5b8135611a3c8482602086016119d7565b91505092915050565b5f5f60408385031215611a5b57611a5a6117a5565b5b5f611a6885828601611864565b925050602083013567ffffffffffffffff811115611a8957611a886117a9565b5b611a9585828601611a18565b9150509250929050565b5f819050919050565b611ab181611a9f565b82525050565b5f602082019050611aca5f830184611aa8565b92915050565b5f60208284031215611ae557611ae46117a5565b5b5f611af284828501611864565b91505092915050565b5f602082019050611b0e5f8301846118c5565b92915050565b5f60c082019050611b275f8301896118b6565b611b3460208301886118c5565b611b4160408301876118c5565b611b4e60608301866118c5565b611b5b60808301856118c5565b611b6860a08301846118c5565b979650505050505050565b5f602082019050611b865f8301846118b6565b92915050565b5f81519050919050565b5f82825260208201905092915050565b8281835e5f83830152505050565b5f611bbe82611b8c565b611bc88185611b96565b9350611bd8818560208601611ba6565b611be181611911565b840191505092915050565b5f6020820190508181035f830152611c048184611bb4565b905092915050565b5f5f5f60608486031215611c2357611c226117a5565b5b5f611c30868287016117cc565b9350506020611c41868287016117cc565b9250506040611c5286828701611864565b9150509250925092565b7f4e487b71000000000000000000000000000000000000000000000000000000005f52601160045260245ffd5b5f611c93826117ad565b91507fffffffffffffffffffffffffffffffffffffffffffffffffffffffffffffffff8203611cc557611cc4611c5c565b5b600182019050919050565b5f60a082019050611ce35f8301886118b6565b611cf060208301876118c5565b611cfd60408301866118c5565b611d0a60608301856118c5565b611d1760808301846118c5565b9695505050505050565b5f611d2b826117ad565b9150611d36836117ad565b9250828201905080821115611d4e57611d4d611c5c565b5b92915050565b5f611d5e826117ad565b9150611d69836117ad565b9250828203905081811115611d8157611d80611c5c565b5b92915050565b5f60c082019050611d9a5f8301896118b6565b611da760208301886118c5565b611db460408301876118c5565b611dc160608301866118b6565b611dce60808301856118c5565b611ddb60a08301846118c5565b979650505050505050565b5f819050919050565b5f67ffffffffffffffff82169050919050565b5f819050919050565b5f611e25611e20611e1b84611de6565b611e02565b611def565b9050919050565b611e3581611e0b565b82525050565b5f602082019050611e4e5f830184611e2c565b92915050565b5f81905092915050565b50565b5f611e6c5f83611e54565b9150611e7782611e5e565b5f82019050919050565b5f611e8b82611e61565b9150819050919050565b5f60a082019050611ea85f8301886118b6565b611eb560208301876118c5565b611ec260408301866118c5565b611ecf60608301856118b6565b611edc60808301846118c5565b9695505050505050565b611eef81611a9f565b8114611ef9575f5ffd5b50565b5f81519050611f0a81611ee6565b92915050565b5f60208284031215611f2557611f246117a5565b5b5f611f3284828501611efc565b91505092915050565b5f81519050919050565b5f611f4f82611f3b565b611f598185611e54565b9350611f69818560208601611ba6565b80840191505092915050565b5f611f808284611f45565b91508190509291505056fea2646970667358221220172d82aeb3e77f3b703e204b59f94253a83f377be8ef9cffd151b525285ce20364736f6c634300081e0033",
    "linkReferences": {}
  },
  "methodIdentifiers": {
    "UPGRADE_INTERFACE_VERSION()": "ad3cb1cc",
    "createProject(uint256,uint256)": "02da667b",
    "fundProject(address,uint256)": "4491629b",
    "initialize()": "8129fc1c",
    "investmentCount(address)": "6e4e2df7",
    "investments(address,uint256)": "3e6d9770",
    "owner()": "8da5cb5b",
    "projectCount(address)": "6608f47c",
    "projects(address,uint256)": "7ecdd3c5",
    "proxiableUUID()": "52d1902d",
    "releaseFunds(uint256,uint256,address)": "f16fd392",
    "renounceOwnership()": "715018a6",
    "transferOwnership(address)": "f2fde38b",
    "upgradeToAndCall(address,bytes)": "4f1ef286"
  },
  "id": 27
}